:020000040000FA
:04000000D9EF2BF019
:10522200070E93160F0E9512120047C04AF048C09F
:105232004BF012004A6E4A500F0B300F12004A6EAA
:105242004A380F0B0F0B300F120082868288CFEC88
:1052520029F08298CFEC29F0120082868298CFEC56
:1052620029F08288CFEC29F0120094929494030ED4
:10527200CA12CA840C0EBD120C0EBA1212003030C1
:105282003A30303A30300000000000000000303583
:105292001000000E4A6E4A2A180E4A6453EF29F093
:1052A20055EF29F04CEF29F01200000E4B6E4AEC3C
:1052B20029F04B2A310E4B6461EF29F063EF29F09C
:1052C20058EF29F012004A504C02F3CF4EF0F4CFBF
:1052D2004FF04A504D02F3504F264B504C02F350C0
:1052E2004F264EC04AF04FC04BF01200506E83CF93
:1052F20051F0000E956E000E4B6E220E4A6E000E9D
:105302004D6E010E4C6EEBEC2EF050C083FF000E82
:105312004B6E210E4A6E000E4D6E010E4C6EEBEC82
:105322002EF0000E4B6E210E4A6E000E4D6E000ED8
:105332004C6EEBEC2EF051C083FF4AEC29F01200C8
:10534200506E8296000E516E515007084E6E50C03C
:105352004FF04E2AAFEF29F0D8904F324E2EADEFDC
:1053620029F0010E4F164F3A82504F18EF0B4F188B
:10537200826E8286CFEC29F08296512A070E516402
:10538200C5EF29F0C7EF29F0A5EF29F08288CFEC0D
:1053920029F08286CFEC29F082961200000E4B6E25
:1053A200000E4A6E000E4C6E280E4C64DBEF29F0A4
:1053B200DDEF29F0DFEF29F0F1EF29F0000E4D6E5D
:1053C200020E4D64E7EF29F0E9EF29F0EBEF29F047
:1053D200EEEF29F04D2AE1EF29F04C2AD5EF29F022
:1053E2004A4A4B2A4B5009E1050E4A5CD8A0FCEF11
:1053F20029F0FEEF29F0D3EF29F01200000E4D6ED6
:10540200000E4C6E25EF2AF0000E4E6E280E4E64F2
:105412000DEF2AF00FEF2AF011EF2AF023EF2AF016
:10542200000E4F6E020E4F6419EF2AF01BEF2AF0A6
:105432001DEF2AF020EF2AF04F2A13EF2AF04E2A0E
:1054420007EF2AF04C4A4D2A4A504C5C4B504D58BB
:10545200D8A02EEF2AF030EF2AF005EF2AF0120042
:10546200536E010ECB244A6E4B6A000E4B2253C080
:105472004CF04D6A64EC29F04AC054F04BC055F030
:1054820054C04AF055C04BF0000E4D6E190E4C6ED2
:105492009FEC2AF04AC054F04BC055F0FF0E541650
:1054A200030E551654C051F055C052F0D8905232E6
:1054B2005132D890523251325150BE6E54C051F0D6
:1054C200030E51165138F00BBD12120053656E686F
:1054D200613A204F464600000000000031202D2096
:1054E200417469762F4465736174000032202D2067
:1054F200416C7465722053656E6861002A202D200C
:10550200566F6C7461720000000000004C757A6581
:10551200733A204F464600000000000031202D2043
:10552200417469762F446573617400002A202D202E
:10553200566F6C746172000000000000000E4F6E26
:10554200000E4E6E4C504D10D8B4AAEF2AF0ACEFBC
:105552002AF0D4EF2AF0010E506EB4EF2AF0D89060
:105562004C364D36502A4DAEB9EF2AF0BBEF2AF039
:10557200B0EF2AF0D8904E364F364C504A5C4D5020
:105582004B58D8A0C7EF2AF0C9EF2AF0CEEF2AF085
:105592004C504A5E4D504B5A4E80D8904D324C3250
:1055A200502EBBEF2AF04EC04AF04FC04BF0120013
:1055B200000E4B6E220E4A6E000E4D6E000E4C6EA9
:1055C20012EC30F0000E4B6E210E4A6E000E4D6E44
:1055D200000E4C6E12EC30F0000E956E56EC29F077
:1055E20056EC29F056EC29F056EC29F056EC29F04D
:1055F200380E15EC2BF056EC29F056EC29F0380E4B
:1056020015EC2BF056EC29F0380E15EC2BF0380E79
:1056120015EC2BF0060E15EC2BF00C0E15EC2BF006
:10562200010E15EC2BF01200516E83CF50F0000EDC
:10563200956E000E4B6E220E4A6E000E4D6E000EDF
:105642004C6EEBEC2EF051C083FF000E4B6E210E20
:105652004A6E000E4D6E010E4C6EEBEC2EF0000EFB
:105662004B6E210E4A6E000E4D6E000E4C6EEBEC30
:105672002EF050C083FF020E5118D8B443EF2BF026
:1056820045EF2BF04DEF2BF05104D8A44BEF2BF04C
:105692004DEF2BF051EF2BF056EC29F053EF2BF09E
:1056A2004AEC29F01200506E000E516E82969488D8
:1056B2008288000E526E8286CFEC29F05250070883
:1056C2004E6E82B867EF2BF06BEF2BF04F6A4F2ACA
:1056D2006CEF2BF04F6A4E2A71EF2BF0D8904F36B9
:1056E2004E2E6FEF2BF04F5051128296522A070E18
:1056F20052647EEF2BF080EF2BF05CEF2BF094984E
:105702005050D8B487EF2BF089EF2BF08CEF2BF0B1
:1057120082988DEF2BF08288CFEC29F08286CFEC35
:1057220029F08296515012004E504F1050105110D5
:10573200D8B49EEF2BF0A0EF2BF0D0EF2BF0010EA0
:10574200526EAAEF2BF0D8904E364F365036513665
:10575200522A51AEAFEF2BF0B1EF2BF0A4EF2BF0AA
:105762004E504A5C4F504B5850504C5851504D5827
:10577200D8A0BEEF2BF0C0EF2BF0C8EF2BF04E50AD
:105782004A5E4F504B5A50504C5A51504D5AD89035
:10579200513250324F324E32522EB1EF2BF04AC0BC
:1057A2004AF04BC04BF04CC04CF04DC04DF01200D3
:1057B2006C0EF66E5B0EF76E000EF86E02EE00F0E7
:1057C20010EEF0F00900F5CFEEFFE550E150FAE1FE
:1057D200C40EF66E590EF76E000EF86E01EE00F072
:1057E20010EED0F00900F5CFEEFFE550E150FAE1FE
:1057F200CE0EF66E540EF76E000EF86E00EE80F0CE
:1058020010EE70F00900F5CFEEFFE550E150FAE13D
:10581200800EF66E520EF76E000EF86E00EE64F019
:1058220010EE14F00900F5CFEEFFE550E150FAE179
:1058320000EEF0F0100EEE6AE806FDE100EE01F077
:10584200490EEE6AE806FDE10001F0EF35F0000EC8
:105852004F6E4BBE31EF2CF02FEF2CF037EF2CF0C8
:105862004A6C4B1ED8B04B2A010E4F6E4DBE3EEF16
:105872002CF03CEF2CF042EF2CF04C6C4D1ED8B0CB
:105882004D2A4C504D10D8B449EF2CF04BEF2CF070
:105892006FEF2CF0010E4E6E53EF2CF0D8904C3679
:1058A2004D364E2A4DAE58EF2CF05AEF2CF04FEFFA
:1058B2002CF04C504A5C4D504B58D8A063EF2CF062
:1058C20065EF2CF069EF2CF04C504A5E4D504B5A6C
:1058D200D8904D324C324E2E5AEF2CF04F50D8B455
:1058E20075EF2CF077EF2CF07BEF2CF04A6C4B1E0F
:1058F200D8B04B2A4AC04AF04BC04BF01200000EFF
:105902004F6E4DBE89EF2CF087EF2CF08FEF2CF00D
:105912004C6C4D1ED8B04D2A010E4F6E4BBE96EF09
:105922002CF094EF2CF09CEF2CF04A6C4B1ED8B06C
:105932004B2A010E4F1A000E516E000E506E4C5043
:105942004D10D8B4A7EF2CF0A9EF2CF0D1EF2CF02A
:10595200010E4E6EB1EF2CF0D8904C364D364E2AD9
:105962004DAEB6EF2CF0B8EF2CF0ADEF2CF0D89096
:10597200503651364C504A5C4D504B58D8A0C4EF6B
:105982002CF0C6EF2CF0CBEF2CF04C504A5E4D5071
:105992004B5A5080D8904D324C324E2EB8EF2CF0EC
:1059A2004F50D8B4D7EF2CF0D9EF2CF0DDEF2CF01C
:1059B200506C511ED8B0512A50C04AF051C04BF021
:1059C2001200536F6E6563613A204F464600000035
:1059D200000031202D20417469762F446573617473
:1059E200000032202D20416A7573742054656D7059
:1059F2006F002A202D20566F6C7461720000000027
:105A0200000031202D204163656E64204C757A655B
:105A1200730032202D2053656E686120702F204460
:105A2200657333202D20536F6E65636100000000A3
:105A320000002A202D20566F6C7461720000000055
:105A420000003120612036202D20416A7573746177
:105A520072002A202D2043616E63656C6172000022
:105A6200000023202D2053616C766172000000003B
:105A72000000312D20416A757374617220416C619E
:105A8200726D322D204F70636F657320416C6172AD
:105A92006D0026EC29F0D00EA1EC29F0000EA1EC4D
:105AA20029F026EC29F0D10EA1EC29F0010E54ECDC
:105AB2002BF07F0B536E3A0E166E535020EC29F0EA
:105AC200176E53501BEC29F0186E000E196E010E62
:105AD20054EC2BF07F0B536E3A0E136E535020ECA6
:105AE20029F0146E53501BEC29F0156E010E54EC84
:105AF2002BF03F0B536E535020EC29F0116E535094
:105B02001BEC29F0126E010E54EC2BF0010E54EC3A
:105B12002BF03F0B536E535020EC29F01B6E535069
:105B22001BEC29F01C6E010E54EC2BF01F0B536E74
:105B32002F0E1D6E535020EC29F01E6E53501BEC9D
:105B420029F01F6E000E54EC2BF0536E2F0E206EB8
:105B5200535020EC29F0216E53501BEC29F0226E99
:105B6200000E236E2EEC29F012002A202D2044650F
:105B72007361746976617200000023202D20536FD7
:105B82006E65636100000000000053656E68613A53
:105B92002000000000000000000053656E686120D4
:105BA200496E636F727265746121446967697465D5
:105BB200206E6F76616D656E7465536F6E6563619D
:105BC200204174697661646100004E6F766F2068CF
:105BD2006F726172696F3A00000054656D706F3ABE
:105BE2002020202073656700000031202D204175A0
:105BF2006D656E7461720000000032202D204469D0
:105C02006D696E756972000000002A202D20566FA2
:105C12006C746172000000000000417475616C3A9E
:105C220020000000000000000000446967697465FC
:105C32003A2000000000000000002A202D204361CD
:105C42006E63656C61720000000023202D20536199
:105C52006C76617200000000000083CF4FF00F0EDF
:105C62009512000E536EF80E931653C04AF0010EB1
:105C72004B6E4A2A3FEF2EF0D8904B364A2E3DEF1C
:105C82002EF04B509312070E811253C04AF0010EB0
:105C92004B6E4A2A4FEF2EF0D8904B364A2E4DEFDC
:105CA2002EF04B50FF0A8116000E516E000E506E00
:105CB200504A512A51BE67EF2EF0515009E10A0EA7
:105CC200505CD8A067EF2EF069EF2EF059EF2EF05E
:105CD200000E526E52C04AF0010E4B6E4A2A74EF09
:105CE2002EF0D8904B364A2E72EF2EF04B50831482
:105CF2000009D8A47FEF2EF081EF2EF099EF2EF05D
:105D02005350040DF35052244A6E010E4B6E000E96
:105D12004C6E4A2A90EF2EF0D8904B364C364A2ED3
:105D22008DEF2EF04B5045124C504612B3EF2EF031
:105D32005350040DF35052244A6E010E4B6E000E66
:105D42004C6E4A2AA8EF2EF0D8904B364C364A2E8B
:105D5200A5EF2EF04B1C4D6E4C1C4E6E4D50451651
:105D62004E504616522A030E5264BAEF2EF0BCEF82
:105D72002EF06BEF2EF0532A020E5364C3EF2EF077
:105D8200C5EF2EF034EF2EF04550431807E1465090
:105D92004418D8A4CFEF2EF0D1EF2EF0D4EF2EF08E
:105DA2004906DAEF2EF00A0E496E45C043F046C0AE
:105DB20044F04950D8A4E0EF2EF0E2EF2EF0E6EFE7
:105DC2002EF043C047F044C048F04FC083FF000E9E
:105DD200956E12004BBEF9EF2EF04B5007E1080E04
:105DE2004A5CD8B0F7EF2EF0F9EF2EF023EF2FF048
:105DF2004C504D10D8B400EF2FF002EF2FF012EFFD
:105E02002FF04AC04EF0010E4F6E4E2A0BEF2FF0CC
:105E1200D8904F364E2E09EF2FF04F50801211EFCF
:105E220030F04AC04EF0010E4F6E4E2A1BEF2FF09B
:105E3200D8904F364E2E19EF2FF04F50FF0A801692
:105E420011EF30F04BBE31EF2FF04B5007E1100E47
:105E52004A5CD8B02FEF2FF031EF2FF05FEF2FF029
:105E6200F80E4A26FF0E4B224C504D10D8B43CEF90
:105E72002FF03EEF2FF04EEF2FF04AC04EF0010E02
:105E82004F6E4E2A47EF2FF0D8904F364E2E45EFE9
:105E92002FF04F50811211EF30F04AC04EF0010E38
:105EA2004F6E4E2A57EF2FF0D8904F364E2E55EFA9
:105EB2002FF04F50FF0A811611EF30F04BBE6DEFFD
:105EC2002FF04B5007E1180E4A5CD8B06BEF2FF061
:105ED2006DEF2FF09BEF2FF0F00E4A26FF0E4B22B4
:105EE2004C504D10D8B478EF2FF07AEF2FF08AEFA4
:105EF2002FF04AC04EF0010E4F6E4E2A83EF2FF064
:105F0200D8904F364E2E81EF2FF04F50821211EF64
:105F120030F04AC04EF0010E4F6E4E2A93EF2FF032
:105F2200D8904F364E2E91EF2FF04F50FF0A821627
:105F320011EF30F04BBEA9EF2FF04B5007E1200ECE
:105F42004A5CD8B0A7EF2FF0A9EF2FF0D7EF2FF0D0
:105F5200E80E4A26FF0E4B224C504D10D8B4B4EF37
:105F62002FF0B6EF2FF0C6EF2FF04AC04EF0010E21
:105F72004F6E4E2ABFEF2FF0D8904F364E2EBDEF08
:105F82002FF04F50831211EF30F04AC04EF0010E45
:105F92004F6E4E2ACFEF2FF0D8904F364E2ECDEFC8
:105FA2002FF04F50FF0A831611EF30F04BBEE5EF92
:105FB2002FF04B5007E1280E4A5CD8B0E3EF2FF0E8
:105FC200E5EF2FF011EF30F0E00E4A26FF0E4B22E4
:105FD2004C504D10D8B4F0EF2FF0F2EF2FF002EF4B
:105FE20030F04AC04EF0010E4F6E4E2AFBEF2FF0FA
:105FF200D8904F364E2EF9EF2FF04F50841211EFFA
:1060020030F04AC04EF0010E4F6E4E2A0BEF30F0C8
:10601200D8904F364E2E09EF30F04F50FF0A8416BB
:1060220012004BBE20EF30F04B5007E1080E4A5CE5
:10603200D8B01EEF30F020EF30F04AEF30F04C5085
:106042004D10D8B427EF30F029EF30F039EF30F0AF
:106052004AC04EF0010E4F6E4E2A32EF30F0D89009
:106062004F364E2E30EF30F04F50921238EF31F063
:106072004AC04EF0010E4F6E4E2A42EF30F0D890D9
:106082004F364E2E40EF30F04F50FF0A921638EF47
:1060920031F04BBE58EF30F04B5007E1100E4A5C26
:1060A200D8B056EF30F058EF30F086EF30F04C5069
:1060B2004D10D8B45FEF30F061EF30F073EF30F095
:1060C2004AC04EF0F80E4E26010E4F6E4E2A6CEF6D
:1060D20030F0D8904F364E2E6AEF30F04F50931278
:1060E20038EF31F04AC04EF0F80E4E26010E4F6ED8
:1060F2004E2A7EEF30F0D8904F364E2E7CEF30F0A5
:106102004F50FF0A931638EF31F04BBE94EF30F048
:106112004B5007E1180E4A5CD8B092EF30F094EF82
:1061220030F0C2EF30F04C504D10D8B49BEF30F04D
:106132009DEF30F0AFEF30F04AC04EF0F00E4E2639
:10614200010E4F6E4E2AA8EF30F0D8904F364E2EE9
:10615200A6EF30F04F50941238EF31F04AC04EF0B3
:10616200F00E4E26010E4F6E4E2ABAEF30F0D89046
:106172004F364E2EB8EF30F04F50FF0A941638EFDC
:1061820031F04BBED0EF30F04B5007E1200E4A5CAD
:10619200D8B0CEEF30F0D0EF30F0FEEF30F04C5010
:1061A2004D10D8B4D7EF30F0D9EF30F0EBEF30F03C
:1061B2004AC04EF0E80E4E26010E4F6E4E2AE4EF14
:1061C20030F0D8904F364E2EE2EF30F04F5095120D
:1061D20038EF31F04AC04EF0E80E4E26010E4F6EF7
:1061E2004E2AF6EF30F0D8904F364E2EF4EF30F0C4
:1061F2004F50FF0A951638EF31F04BBE0CEF31F0DD
:106202004B5007E1280E4A5CD8B00AEF31F00CEF90
:1062120031F038EF31F04C504D10D8B413EF31F06B
:1062220015EF31F027EF31F04AC04EF0E00E4E2666
:10623200010E4F6E4E2A20EF31F0D8904F364E2E7F
:106242001EEF31F04F50961238EF31F04AC04EF047
:10625200E00E4E26010E4F6E4E2A32EF31F0D890EC
:106262004F364E2E30EF31F04F50FF0A9616120085
:10627200000E5F6E000E5E6E000E926E000E956E48
:106282008368D9EC2AF011EC29F036EC29F0010EE2
:1062920015EC2BF0600E31EC2AF04E0E0001C819FD
:1062A200D8A456EF31F058EF31F05CEF31F0808A2C
:1062B2008088808680844E0E8819D8A463EF31F0DE
:1062C20065EF31F06DEF34F0800E15EC2BF0000E1F
:1062D200616E000E606E640E6024D96E000E612045
:1062E200DA6EDF5077EC29F0604A612A61BE83EFF3
:1062F20031F0615009E1100E605CD8A083EF31F0FB
:1063020085EF31F06CEF31F0C00E15EC2BF0000E82
:10631200616E000E606E200E6024D96E020E612046
:10632200DA6EDF5077EC29F0604A612A61BEA3EF92
:1063320031F0615009E1070E605CD8A0A3EF31F0A3
:10634200A5EF31F08CEF31F0900E15EC2BF0000E32
:10635200616E000E606E000E6024D96E020E612026
:10636200DA6EDF5077EC29F0604A612A61BEC3EF32
:1063720031F0615009E1100E605CD8A0C3EF31F03A
:10638200C5EF31F0ACEF31F0D00E15EC2BF0000E72
:10639200616E000E606E100E6024D96E020E6120D6
:1063A200DA6EDF5077EC29F0604A612A61BEE3EFD2
:1063B20031F0615009E1100E605CD8A0E3EF31F0DA
:1063C200E5EF31F0CCEF31F02EEC2EF016EC29F0A7
:1063D20076504A1809E177504B18D8B4F3EF31F0F0
:1063E200F5EF31F0E5EF31F016EC29F04AC076F026
:1063F2004BC077F076A800EF32F002EF32F00EEFEA
:1064020032F0580E5E24D96E000E5F20DA6E300E26
:10641200DF6E5E4A5F2AA7EF32F076A613EF32F004
:1064220015EF32F01FEF32F0580E5E24D96E000ED7
:106432005F20DA6E310EDF6E0AEF32F076AE24EFB5
:1064420032F026EF32F030EF32F0580E5E24D96E81
:10645200000E5F20DA6E320EDF6E0AEF32F077A6A0
:1064620035EF32F037EF32F041EF32F0580E5E2462
:10647200D96E000E5F20DA6E330EDF6E0AEF32F055
:1064820076A446EF32F048EF32F052EF32F0580E77
:106492005E24D96E000E5F20DA6E340EDF6E0AEFD4
:1064A20032F076AC57EF32F059EF32F063EF32F060
:1064B200580E5E24D96E000E5F20DA6E350EDF6E46
:1064C2000AEF32F077A468EF32F06AEF32F074EF3D
:1064D20032F0580E5E24D96E000E5F20DA6E360E50
:1064E200DF6E0AEF32F076A279EF32F07BEF32F014
:1064F20085EF32F0580E5E24D96E000E5F20DA6E00
:10650200370EDF6E0AEF32F076AA8AEF32F08CEFA6
:1065120032F096EF32F0580E5E24D96E000E5F20F4
:10652200DA6E380EDF6E0AEF32F077A29BEF32F0AE
:106532009DEF32F0A7EF32F0580E5E24D96E000EB6
:106542005F20DA6E390EDF6E0AEF32F0C70E15ECFD
:106552002BF0000E616E000E606E580E6024D96E34
:10656200000E6120DA6EDF5077EC29F0604A612A72
:1065720061BEC5EF32F0615009E1040E605CD8A043
:10658200C5EF32F0C7EF32F0AEEF32F076A0CCEFCB
:1065920032F0CEEF32F085EF33F0000E616E000E76
:1065A200606E580E6024D96E000E6120DA6E290EDC
:1065B2006024E16E000E6120E26EDE50E618D8B46F
:1065C200E5EF32F0E7EF32F0E9EF32F0F9EF32F0D7
:1065D200604A612A61BEF7EF32F0615009E1040EB0
:1065E200605CD8A0F7EF32F0F9EF32F0D2EF32F080
:1065F200040E60186110D8A401EF33F003EF33F0FA
:1066020005EF33F0E8EF35F0C00E15EC2BF0000E7D
:10661200616E000E606E300E6024D96E020E612033
:10662200DA6EDF5077EC29F0604A612A61BE23EF0F
:1066320033F0615009E1100E605CD8A023EF33F013
:1066420025EF33F00CEF33F0900E15EC2BF0000E2B
:10665200616E000E606E400E6024D96E020E6120E3
:10666200DA6EDF5077EC29F0604A612A61BE43EFAF
:1066720033F0615009E1100E605CD8A043EF33F0B3
:1066820045EF33F02CEF33F00B0E4B6EB80E4A6E23
:10669200FFEC29F0000E616E000E606E580E602451
:1066A200D96E000E6120DA6E200EDF6E604A612A1A
:1066B20061BE65EF33F0615009E1040E605CD8A061
:1066C20065EF33F067EF33F04FEF33F0C00E15ECA8
:1066D2002BF0000E616E000E606E200E77EC29F03A
:1066E200604A612A61BE7FEF33F0615009E1100E0A
:1066F200605CD8A07FEF33F081EF33F06EEF33F0C0
:10670200000E5F6E000E5E6E77A08AEF33F08CEFA4
:1067120033F065EF31F04AEC2DF017500A0DF3CF4C
:1067220056F0F4CF57F074500A0DF3505626F45039
:10673200572275505626000E572218505626000E24
:106742005722E00E56245C6EFB0E57205D6E5DBE36
:10675200B4EF33F05D5009E13C0E5C5CD8A0B4EFBD
:1067620033F0B6EF33F0D1EF33F05CC04AF05DC0E6
:106772004BF0000E4D6E3C0E4C6E80EC2CF04A50ED
:10678200300F686E5CC04AF05DC04BF0000E4D6E7B
:106792003C0E4C6E28EC2CF04AC05CF04BC05DF015
:1067A2005CC04AF05DC04BF0000E4D6E0A0E4C6E9E
:1067B20080EC2CF04A50300F6A6E5CC04AF05DC02B
:1067C2004BF0000E4D6E0A0E4C6E28EC2CF04A5027
:1067D200300F6B6E800E15EC2BF0000E616E000E0A
:1067E200606E500E6024D96E020E6120DA6EDF50A8
:1067F20077EC29F0604A612A61BE09EF34F06150FA
:1068020009E1100E605CD8A009EF34F00BEF34F010
:10681200F2EF33F0C00E15EC2BF0000E616E000E9D
:10682200606E200E77EC29F0604A612A61BE23EF88
:1068320034F0615009E1100E605CD8A023EF34F00F
:1068420025EF34F012EF34F0900E15EC2BF0000E21
:10685200616E000E606E600E6024D96E020E6120C1
:10686200DA6EDF5077EC29F0604A612A61BE43EFAD
:1068720034F0615009E1100E605CD8A043EF34F0AF
:1068820045EF34F02CEF34F0D00E15EC2BF0000E67
:10689200616E000E606E640E6024D96E000E61207F
:1068A200DA6EDF5077EC29F0604A612A61BE63EF4D
:1068B20034F0615009E1100E605CD8A063EF34F04F
:1068C20065EF34F04CEF34F00B0E4B6EB80E4A6E9F
:1068D200FFEC29F0E8EF35F0800E15EC2BF0000EFE
:1068E200616E000E606E640E6024D96E000E61202F
:1068F200DA6EDF5077EC29F0604A612A61BE8BEFD5
:1069020034F0615009E1100E605CD8A08BEF34F0D6
:106912008DEF34F074EF34F0C00E15EC2BF0000E56
:10692200616E000E606E200E77EC29F0604A612ADB
:1069320061BEA5EF34F0615009E1100E605CD8A091
:10694200A5EF34F0A7EF34F094EF34F0900E15EC8D
:106952002BF0000E616E000E606E000E6024D96E88
:10696200020E6120DA6EDF5077EC29F0604A612A6C
:1069720061BEC5EF34F0615009E1100E605CD8A031
:10698200C5EF34F0C7EF34F0AEEF34F0D00E15ECB3
:106992002BF0000E616E000E606E100E6024D96E38
:1069A200020E6120DA6EDF5077EC29F0604A612A2C
:1069B20061BEE5EF34F0615009E1100E605CD8A0D1
:1069C200E5EF34F0E7EF34F0CEEF34F02EEC2EF0BA
:1069D20016EC29F076504A1809E177504B18D8B4D2
:1069E200F5EF34F0F7EF34F0E7EF34F016EC29F07E
:1069F2004AC076F04BC077F076A002EF35F004EF94
:106A020035F006EF35F0E8EF35F077A00BEF35F013
:106A12000DEF35F0E7EF34F04AEC2DF017500A0D88
:106A2200F3CF56F0F4CF57F074500A0DF3505626B8
:106A3200F450572275505626000E572218505626EB
:106A4200000E5722E00E56245C6EFB0E57205D6E40
:106A52005DBE35EF35F05D5009E13C0E5C5CD8A0BF
:106A620035EF35F037EF35F052EF35F05CC04AF0D4
:106A72005DC04BF0000E4D6E3C0E4C6E80EC2CF067
:106A82004A50300F686E5CC04AF05DC04BF0000E99
:106A92004D6E3C0E4C6E28EC2CF04AC05CF04BC0A4
:106AA2005DF05CC04AF05DC04BF0000E4D6E0A0E08
:106AB2004C6E80EC2CF04A50300F6A6E5CC04AF08B
:106AC2005DC04BF0000E4D6E0A0E4C6E28EC2CF0A1
:106AD2004A50300F6B6E800E15EC2BF0000E616E7B
:106AE200000E606E500E6024D96E020E6120DA6EC6
:106AF200DF5077EC29F0604A612A61BE8AEF35F0F7
:106B0200615009E1100E605CD8A08AEF35F08CEF7D
:106B120035F073EF35F0C00E15EC2BF0000E616E00
:106B2200000E606E200E77EC29F0604A612A61BE89
:106B3200A4EF35F0615009E1100E605CD8A0A4EF1B
:106B420035F0A6EF35F093EF35F0900E15EC2BF003
:106B5200000E616E000E606E600E6024D96E020E31
:106B62006120DA6EDF5077EC29F0604A612A61BE5B
:106B7200C4EF35F0615009E1100E605CD8A0C4EF9B
:106B820035F0C6EF35F0ADEF35F0D00E15EC2BF049
:106B9200000E616E000E606E640E6024D96E000EEF
:106BA2006120DA6EDF5077EC29F0604A612A61BE1B
:106BB200E4EF35F0615009E1100E605CD8A0E4EF1B
:106BC20035F0E6EF35F0CDEF35F065EF34F0000E3D
:106BD20031EC2AF0809A809880968094120036ECEC
:106BE20029F0000E946ED9EC2AF011EC29F0010E76
:106BF20015EC2BF0800E15EC2BF0000E426E000E01
:106C0200416E200E77EC29F0414A422A425009E1B6
:106C1200100E415CD8A010EF36F012EF36F002EF02
:106C220036F04AEC2DF0000E426E000E416E110E4F
:106C32004124D96E000E4220DA6E010E4124E16E2B
:106C4200000E4220E26EDFCFE7FF010E4124D96E33
:106C5200000E4220DA6EDF5077EC29F0414A422AD8
:106C6200425009E1100E415CD8A03AEF36F03CEFF9
:106C720036F018EF36F001500A0DF3CF62F0F4CF80
:106C820063F002506226000E6322F00E62243D6E13
:106C9200FD0E63203E6E04500A0DF3CF62F0F4CF76
:106CA20063F005506226000E6322F00E62243B6EF2
:106CB200FD0E63203C6E07500A0DF3CF62F0F4CF55
:106CC20063F008506226000E6322F00E6224396ED1
:106CD200FD0E63203A6E900E15EC2BF0000E426E04
:106CE200000E416EB00E4124D96E010E4220DA6EC2
:106CF200DF5077EC29F0414A422A425009E1100E56
:106D0200415CD8A087EF36F089EF36F073EF36F0AA
:106D1200D00E15EC2BF0000E426E000E416EC00E2E
:106D22004124D96E010E4220DA6EDF5077EC29F051
:106D3200414A422A425009E1100E415CD8A0A4EF18
:106D420036F0A6EF36F090EF36F0010E2D26000E4B
:106D52002E222F2230222DC04AF02EC04BF02FC0FF
:106D62004CF030C04DF0B40E4E6E000E4F6E000E61
:106D7200506E000E516E95EC2BF04A504B104C1099
:106D82004D10D8A4C7EF36F0C9EF36F0CBEF36F08E
:106D9200394A3A2A3ABED7EF36F03A5009E13C0E68
:106DA200395CD8A0D7EF36F0D9EF36F005EF37F0DF
:106DB200000E3A6E000E396E3B4A3C2A3CBEEBEFA7
:106DC20036F03C5009E13C0E3B5CD8A0EBEF36F0CC
:106DD200EDEF36F005EF37F0000E3C6E000E3B6E25
:106DE2003D4A3E2A3EBEFFEF36F03E5009E1180E04
:106DF2003D5CD8A0FFEF36F001EF37F005EF37F03A
:106E0200000E3E6E000E3D6E3DC04AF03EC04BF09D
:106E1200000E4D6E0A0E4C6E80EC2CF04A50300F74
:106E2200016E3DC04AF03EC04BF0000E4D6E0A0EA0
:106E32004C6E28EC2CF04A50300F026E3BC04AF0E8
:106E42003CC04BF0000E4D6E0A0E4C6E80EC2CF0E6
:106E52004A50300F046E3BC04AF03CC04BF0000E6B
:106E62004D6E0A0E4C6E28EC2CF04A50300F056E17
:106E720039C04AF03AC04BF0000E4D6E0A0E4C6E0D
:106E820080EC2CF04A50300F076E39C04AF03AC0FD
:106E92004BF0000E4D6E0A0E4C6E28EC2CF04A5050
:106EA200300F086E800E15EC2BF0000E426E000EB5
:106EB200416E010E4124D96E000E4220DA6EDF507F
:106EC20077EC29F0414A422A425009E1080E415C1E
:106ED200D8A06EEF37F070EF37F05AEF37F02EECA4
:106EE2002EF016EC29F076504A1809E177504B182B
:106EF200D8B47EEF37F080EF37F088EF37F016EC3A
:106F020029F04AC076F04BC077F0C0EF37F0000EA0
:106F1200426E000E416E010E4124D96E000E4220D7
:106F2200DA6E640E4124E16E000E4220E26EDE5003
:106F3200E618D8B49FEF37F0A1EF37F0A3EF37F0A0
:106F4200A6EF36F0070E41184210D8A4ABEF37F087
:106F5200ADEF37F0B1EF37F0394A3A2A39EC31F078
:106F6200414A422A425009E1080E415CD8A0BCEFD6
:106F720037F0BEEF37F08CEF37F0A6EF36F076A69B
:106F8200C5EF37F0C7EF37F0ECEF39F0000E426E85
:106F9200000E416E640E4124D96E000E4220DA6E5C
:106FA200F00E4124E16E000E4220E26EDFCFE7FFD9
:106FB200414A422A425009E1080E415CD8A0E4EF5E
:106FC20037F0E6EF37F0CBEF37F064500A0DF3CF2E
:106FD20062F0F4CF63F065506226000E6322F00E79
:106FE2006224376EFD0E6320386E67500A0DF3CFB0
:106FF20062F0F4CF63F068506226000E6322F00E56
:107002006224356EFD0E6320366E6A500A0DF3CF90
:1070120062F0F4CF63F06B506226000E6322F00E32
:107022006224336EFD0E6320346E800E15EC2BF05D
:10703200000E426E000E416E640E4124D96E000EA7
:107042004220DA6EDF5077EC29F0414A422A425060
:1070520009E1080E415CD8A031EF38F033EF38F087
:107062001DEF38F0C00E15EC2BF0000E426E000E34
:10707200416E800E4124D96E010E4220DA6EDF503D
:1070820077EC29F0414A422A425009E1100E415C54
:10709200D8A04EEF38F050EF38F03AEF38F0900EBB
:1070A20015EC2BF0000E426E000E416E900E412444
:1070B200D96E010E4220DA6EDF5077EC29F0414A98
:1070C200422A425009E1100E415CD8A06BEF38F021
:1070D2006DEF38F057EF38F0D00E15EC2BF0000EB4
:1070E200426E000E416EA00E4124D96E010E422066
:1070F200DA6EDF5077EC29F0414A422A425009E128
:10710200100E415CD8A088EF38F08AEF38F074EFA7
:1071120038F02EEC2EF016EC29F076504A1809E1E0
:1071220077504B18D8B498EF38F09AEF38F08AEFCE
:1071320038F016EC29F04AC076F04BC077F076A60C
:10714200A5EF38F0A7EF38F0D7EF38F0374A382AF2
:1071520038BEB5EF38F0385009E1180E375CD8A0C8
:10716200B5EF38F0B7EF38F0BBEF38F0000E386EFD
:10717200000E376E37C04AF038C04BF0000E4D6E2D
:107182000A0E4C6E80EC2CF04A50300F646E37C001
:107192004AF038C04BF0000E4D6E0A0E4C6E28ECD1
:1071A2002CF04A50300F656ECDEF39F076A4DCEF4B
:1071B20038F0DEEF38F0F4EF38F03706D8A03806B2
:1071C20038BEEEEF38F0385006E13704D8B0ECEFB5
:1071D20038F0EEEF38F0BBEF38F0000E386E170ED5
:1071E200376EBBEF38F076AEF9EF38F0FBEF38F0E0
:1071F2002BEF39F0354A362A36BE09EF39F03650D0
:1072020009E13C0E355CD8A009EF39F00BEF39F0FB
:107212000FEF39F0000E366E000E356E35C04AF0B3
:1072220036C04BF0000E4D6E0A0E4C6E80EC2CF008
:107232004A50300F676E35C04AF036C04BF0000E30
:107242004D6E0A0E4C6E28EC2CF04A50300F686ED0
:10725200CDEF39F076AC30EF39F032EF39F048EF5C
:1072620039F03506D8A0360636BE42EF39F0365030
:1072720006E13504D8B040EF39F042EF39F00FEFB4
:1072820039F0000E366E3B0E356E0FEF39F077A6F1
:107292004DEF39F04FEF39F07FEF39F0334A342AAE
:1072A20034BE5DEF39F0345009E13C0E335CD8A0B6
:1072B2005DEF39F05FEF39F063EF39F0000E346EB5
:1072C200000E336E33C04AF034C04BF0000E4D6EE8
:1072D2000A0E4C6E80EC2CF04A50300F6A6E33C0AE
:1072E2004AF034C04BF0000E4D6E0A0E4C6E28EC84
:1072F2002CF04A50300F6B6ECDEF39F077A484EF4B
:1073020039F086EF39F09CEF39F03306D8A0340615
:1073120034BE96EF39F0345006E13304D8B094EF1E
:1073220039F096EF39F063EF39F0000E346E3B0E10
:10733200336E63EF39F076A0A1EF39F0A3EF39F0A5
:10734200C4EF39F0000E426E000E416EF00E412481
:10735200D96E000E4220DA6E640E4124E16E000EF8
:107362004220E26EDFCFE7FF414A422A425009E162
:10737200080E415CD8A0C0EF39F0C2EF39F0A7EF98
:1073820039F0F8EF35F077A0C9EF39F0CBEF39F0EB
:10739200CDEF39F0F8EF35F0800E15EC2BF0000E42
:1073A200426E000E416E640E4124D96E000E4220E0
:1073B200DA6EDF5077EC29F0414A422A425009E165
:1073C200080E415CD8A0E8EF39F0EAEF39F0D4EFCB
:1073D20039F08AEF38F076AEF1EF39F0F3EF39F0A9
:1073E200F8EF35F0800E15EC2BF0000E426E000E19
:1073F200416E400E4124D96E010E4220DA6EDF50FA
:1074020077EC29F0414A422A425009E1100E415CD0
:10741200D8A00EEF3AF010EF3AF0FAEF39F0C00EC2
:1074220015EC2BF0000E426E000E416E500E412400
:10743200D96E010E4220DA6EDF5077EC29F0414A14
:10744200422A425009E1100E415CD8A02BEF3AF0DB
:107452002DEF3AF017EF3AF0900E15EC2BF0000EEC
:10746200426E000E416E600E4124D96E010E422022
:10747200DA6EDF5077EC29F0414A422A425009E1A4
:10748200100E415CD8A048EF3AF04AEF3AF034EFE0
:107492003AF0D00E15EC2BF0000E426E000E416E4B
:1074A200700E4124D96E010E4220DA6EDF5077EC65
:1074B20029F0414A422A425009E1100E415CD8A00B
:1074C20065EF3AF067EF3AF051EF3AF02EEC2EF01A
:1074D20016EC29F076504A1809E177504B18D8B4C7
:1074E20075EF3AF077EF3AF067EF3AF016EC29F0E1
:1074F2004AC076F04BC077F076A682EF3AF084EF7E
:107502003AF04BEF3BF0800E15EC2BF0000E426E82
:10751200000E416EC00E4124D96E000E4220DA6E7A
:10752200DF5077EC29F0414A422A425009E1100E1D
:10753200415CD8A09FEF3AF0A1EF3AF08BEF3AF01E
:10754200C00E15EC2BF0000E426E000E416E200EA6
:1075520077EC29F0414A422A425009E1100E415C7F
:10756200D8A0B6EF3AF0B8EF3AF0A8EF3AF0900EA2
:1075720015EC2BF0000E426E000E416ED00E41242F
:10758200D96E000E4220DA6EDF5077EC29F0414AC4
:10759200422A425009E1100E415CD8A0D3EF3AF0E2
:1075A200D5EF3AF0BFEF3AF0D00E15EC2BF0000E0B
:1075B200426E000E416EE00E4124D96E000E422052
:1075C200DA6EDF5077EC29F0414A422A425009E153
:1075D200100E415CD8A0F0EF3AF0F2EF3AF0DCEF97
:1075E2003AF02EEC2EF016EC29F076504A1809E10A
:1075F20077504B18D8B400EF3BF002EF3BF0F2EFBC
:107602003AF016EC29F04AC076F04BC077F076A635
:107612000DEF3BF00FEF3BF042EF3BF0460E000167
:10762200C819D8A417EF3BF019EF3BF01FEF3BF05E
:107632004E0EC86F200EC96F23EF3BF0460EC86F87
:10764200460EC96F800E15EC2BF0000E426E000E36
:10765200416EC00E4124D96E000E4220DA6EDF5018
:1076620077EC29F0414A422A425009E1100E415C6E
:10767200D8A03EEF3BF040EF3BF02AEF3BF0F2EFB9
:107682003AF076A047EF3BF049EF3BF0F2EF3AF0E9
:10769200F3EF39F076AE50EF3BF052EF3BF0E3EF11
:1076A2003DF0800E15EC2BF0000E426E000E416E86
:1076B200800E4124D96E000E4220DA6EDF5077EC44
:1076C20029F0414A422A425009E1100E415CD8A0F9
:1076D2006DEF3BF06FEF3BF059EF3BF0C00E15EC56
:1076E2002BF0000E426E000E416E900E4124D96EB8
:1076F200000E4220DA6EDF5077EC29F0414A422A2E
:10770200425009E1100E415CD8A08AEF3BF08CEFA9
:107712003BF076EF3BF0900E15EC2BF0000E426E34
:10772200000E416EA00E4124D96E000E4220DA6E88
:10773200DF5077EC29F0414A422A425009E1100E0B
:10774200415CD8A0A7EF3BF0A9EF3BF093EF3BF0F1
:10775200D00E15EC2BF0000E426E000E416EB00EF4
:107762004124D96E000E4220DA6EDF5077EC29F008
:10777200414A422A425009E1100E415CD8A0C4EFAE
:107782003BF0C6EF3BF0B0EF3BF02EEC2EF016ECE8
:1077920029F076504A1809E177504B18D8B4D4EF43
:1077A2003BF0D6EF3BF0C6EF3BF016EC29F04AC0B7
:1077B20076F04BC077F076A6E1EF3BF0E3EF3BF0DB
:1077C20016EF3CF0460E00018819D8A4EBEF3BF00F
:1077D200EDEF3BF0F3EF3BF04E0E886F200E896F1A
:1077E200F7EF3BF0460E886F460E896F800E15EC60
:1077F2002BF0000E426E000E416E800E4124D96EB7
:10780200000E4220DA6EDF5077EC29F0414A422A1C
:10781200425009E1100E415CD8A012EF3CF014EF87
:107822003CF0FEEF3BF052EF3BF076AE1BEF3CF04C
:107832001DEF3CF0DAEF3DF0800E15EC2BF0000E60
:10784200426E000E416EB00E4124D96E020E4220ED
:10785200DA6EDF5077EC29F0414A422A425009E1C0
:10786200070E415CD8A038EF3CF03AEF3CF024EF31
:107872003CF0000E426E000E416E290E4124D96E7C
:10788200000E4220DA6EDF5077EC29F0414A422A9C
:10789200425009E1040E415CD8A052EF3CF054EF93
:1078A2003CF03EEF3CF0C00E15EC2BF0000E426EA9
:1078B200000E416EC00E4124D96E020E4220DA6ED5
:1078C200DF5077EC29F0414A422A425009E1100E7A
:1078D200415CD8A06FEF3CF071EF3CF05BEF3CF005
:1078E200900E15EC2BF0000E426E000E416ED00E83
:1078F2004124D96E020E4220DA6EDF5077EC29F075
:10790200414A422A425009E1100E415CD8A08CEF54
:107912003CF08EEF3CF078EF3CF0D00E15EC2BF003
:10792200000E426E000E416EE00E4124D96E020E30
:107932004220DA6EDF5077EC29F0414A422A425067
:1079420009E1100E415CD8A0A9EF3CF0ABEF3CF08E
:1079520095EF3CF0000E406E000E3F6E000E426E40
:10796200000E416E250E4124D96E000E4220DA6EC1
:10797200200EDF6E414A422A425009E1040E415C68
:10798200D8A0C6EF3CF0C8EF3CF0B3EF3CF02EECD1
:107992002EF016EC29F076504A1809E177504B1870
:1079A200D8B4D6EF3CF0D8EF3CF0C8EF3CF016EC80
:1079B20029F04AC076F04BC077F076A8E3EF3CF0AE
:1079C200E5EF3CF0F1EF3CF0250E3F24D96E000EBE
:1079D2004020DA6E300EDF6E3F4A402ABBEF3DF0A8
:1079E20076A6F6EF3CF0F8EF3CF002EF3DF0250E04
:1079F2003F24D96E000E4020DA6E310EDF6EEDEFBD
:107A02003CF076AE07EF3DF009EF3DF013EF3DF0AD
:107A1200250E3F24D96E000E4020DA6E320EDF6E44
:107A2200EDEF3CF077A618EF3DF01AEF3DF024EFB2
:107A32003DF0250E3F24D96E000E4020DA6E330E43
:107A4200DF6EEDEF3CF076A429EF3DF02BEF3DF039
:107A520035EF3DF0250E3F24D96E000E4020DA6E40
:107A6200340EDF6EEDEF3CF076AC3AEF3DF03CEFDA
:107A72003DF046EF3DF0250E3F24D96E000E40202A
:107A8200DA6E350EDF6EEDEF3CF077A44BEF3DF092
:107A92004DEF3DF057EF3DF0250E3F24D96E000E1D
:107AA2004020DA6E360EDF6EEDEF3CF076A25CEF30
:107AB2003DF05EEF3DF068EF3DF0250E3F24D96EBC
:107AC200000E4020DA6E370EDF6EEDEF3CF076AA44
:107AD2006DEF3DF06FEF3DF079EF3DF0250E3F2465
:107AE200D96E000E4020DA6E380EDF6EEDEF3CF0FC
:107AF20077A27EEF3DF080EF3DF08AEF3DF0250E5C
:107B02003F24D96E000E4020DA6E390EDF6EEDEFA3
:107B12003CF076A08FEF3DF091EF3DF093EF3DF01A
:107B220052EF3BF077A098EF3DF09AEF3DF0BBEFBC
:107B32003DF0000E426E000E416E250E4124D96EBC
:107B4200000E4220DA6E290E4124E16E000E422020
:107B5200E26EDFCFE7FF414A422A425009E1040EBA
:107B6200415CD8A0B7EF3DF0B9EF3DF09EEF3DF09C
:107B720052EF3BF0C80E15EC2BF0000E426E000ED9
:107B8200416E250E4124D96E000E4220DA6EDF507E
:107B920077EC29F0414A422A425009E1040E415C45
:107BA200D8A0D6EF3DF0D8EF3DF0C2EF3DF0C8EFE0
:107BB2003CF076A0DFEF3DF0E1EF3DF052EF3BF01D
:107BC200F3EF39F077A6E8EF3DF0EAEF3DF0F5EF9D
:107BD2003FF0800E15EC2BF0000E426E000E416E4F
:107BE200000E4124D96E010E4220DA6EDF5077EC8E
:107BF20029F0414A422A425009E1100E415CD8A0C4
:107C020005EF3EF007EF3EF0F1EF3DF0C00E15EC50
:107C12002BF0000E426E000E416E100E4124D96E02
:107C2200010E4220DA6EDF5077EC29F0414A422AF7
:107C3200425009E1100E415CD8A022EF3EF024EF41
:107C42003EF00EEF3EF0900E15EC2BF0000E426E61
:107C5200000E416E200E4124D96E010E4220DA6ED2
:107C6200DF5077EC29F0414A422A425009E1100ED6
:107C7200415CD8A03FEF3EF041EF3EF02BEF3EF0EB
:107C8200D00E15EC2BF0000E426E000E416E300E3F
:107C92004124D96E010E4220DA6EDF5077EC29F0D2
:107CA200414A422A425009E1100E415CD8A05CEFE1
:107CB2003EF05EEF3EF048EF3EF02EEC2EF016EC7A
:107CC20029F076504A1809E177504B18D8B46CEF76
:107CD2003EF06EEF3EF05EEF3EF016EC29F04AC049
:107CE20076F04BC077F076A679EF3EF07BEF3EF070
:107CF200AEEF3EF0460E01010919D8A483EF3EF023
:107D020085EF3EF08BEF3EF04E0E096F200E0A6FAC
:107D12008FEF3EF0460E096F460E0A6F800E15EC8D
:107D22002BF0000E426E000E416E000E4124D96E01
:107D3200010E4220DA6EDF5077EC29F0414A422AE6
:107D4200425009E1100E415CD8A0AAEF3EF0ACEF20
:107D52003EF096EF3EF0EAEF3DF076AEB3EF3EF046
:107D6200B5EF3EF0ECEF3FF0800E15EC2BF0000E7D
:107D7200426E000E416E700E4124D96E020E4220F8
:107D8200DA6EDF5077EC29F0414A422A425009E18B
:107D9200100E415CD8A0D0EF3EF0D2EF3EF0BCEF27
:107DA2003EF0870E15EC2BF0000E426E000E416E77
:107DB200740E4124D96E000E4220DA6EDF5077EC49
:107DC20029F0414A422A425009E1020E415CD8A000
:107DD200EDEF3EF0EFEF3EF0D9EF3EF0C00E15ECC6
:107DE2002BF0000E426E000E416E800E4124D96EC1
:107DF200020E4220DA6EDF5077EC29F0414A422A25
:107E0200425009E1100E415CD8A00AEF3FF00CEF9E
:107E12003FF0F6EF3EF0900E15EC2BF0000E426EA6
:107E2200000E416E900E4124D96E020E4220DA6E8F
:107E3200DF5077EC29F0414A422A425009E1100E04
:107E4200415CD8A027EF3FF029EF3FF013EF3FF05E
:107E5200D00E15EC2BF0000E426E000E416EA00EFD
:107E62004124D96E020E4220DA6EDF5077EC29F0FF
:107E7200414A422A425009E1100E415CD8A044EF27
:107E82003FF046EF3FF030EF3FF074500A0DF3CF72
:107E920062F0F4CF63F075506226000E6322F00E9A
:107EA2006224316EFD0E6320326E2EEC2EF016EC43
:107EB20029F076504A1809E177504B18D8B464EF8C
:107EC2003FF066EF3FF056EF3FF016EC29F04AC064
:107ED20076F04BC077F076A671EF3FF073EF3FF08C
:107EE2008BEF3FF0050E3126000E322232BE83EFB9
:107EF2003FF0325009E1600E315CD8A083EF3FF0D1
:107F020085EF3FF0B3EF3FF0000E326E050E316E9B
:107F1200B3EF3FF076AE90EF3FF092EF3FF0AAEF73
:107F22003FF0FB0E3126FF0E322232BEA4EF3FF0AD
:107F3200325007E1050E315CD8B0A2EF3FF0A4EF5A
:107F42003FF0B3EF3FF0000E326E5F0E316EB3EFD3
:107F52003FF076A0AFEF3FF0B1EF3FF0B3EF3FF06D
:107F6200EAEF3DF031C04AF032C04BF0000E4D6EE8
:107F72000A0E4C6E80EC2CF04A50300F746E31C0F9
:107F82004AF032C04BF0000E4D6E0A0E4C6E28ECD9
:107F92002CF04A50300F756E870E15EC2BF0000E48
:107FA200426E000E416E740E4124D96E000E4220C4
:107FB200DA6EDF5077EC29F0414A422A425009E159
:107FC200020E415CD8A0E8EF3FF0EAEF3FF0D4EFB9
:107FD2003FF056EF3FF076A0F1EF3FF0F3EF3FF0C6
:107FE200EAEF3DF0F3EF39F076A0FAEF3FF0FCEF65
:0E7FF2003FF0F3EF39F0F8EF35F000EF00F05C
:020000040020DA
:08000000FFFFFFFFFFFFFFFF00
:020000040030CA
:0E000000FF027100FF8380FF0FC00FE00F4072
:00000001FF
